:1000000072C000009EC000009CC000009AC00000AA
:1000100098C0000096C0000094C0000092C000008C
:1000200090C000008EC000008CC000008AC000009C
:1000300088C0000086C0000084C0000082C00000AC
:1000400080C000007EC000007CC000007AC00000BC
:1000500078C0000076C0000074C0000087C20000B5
:1000600070C000004DC2000022C200006AC0000043
:1000700068C0000066C0000064C0000062C00000EC
:1000800060C000005EC000005CC000005AC00000FC
:1000900058C0000056C0000054C0000052C000000C
:1000A00050C000004EC000004CC000004AC000001C
:1000B00048C0000046C0000044C0000042C000002C
:1000C00040C000003EC000003CC000003AC000003C
:1000D00038C0000036C0000034C0000032C000004C
:1000E00030C00000280411241FBECFEFD1E2DEBFD4
:1000F000CDBF00E00CBF12E0A0E0B2E0EEE0F1E125
:1001000000E00BBF02C007900D92AE32B107D9F7E5
:1001100022E0AEE2B2E001C01D92A83DB207E1F7D5
:1001200010E0C3E7D0E000E005C021970109802F6F
:10013000FE01BBD3C237D10780E00807B1F760D218
:10014000E4C75ECFCF92DF92EF92FF920F931F939F
:10015000CF93DF936C017A018B01C0E0D0E0CE1524
:10016000DF0581F0D8016D918D01D601ED91FC91F3
:100170000190F081E02DC6011995892B11F021968F
:10018000EECF7E01C701DF91CF911F910F91FF90BC
:10019000EF90DF90CF900895089580E090E008956B
:1001A000FC01538D448D252F30E0842F90E0821B7D
:1001B000930B541710F0CF96089501970895FC0102
:1001C000918D828D981761F0828DDF01A80FB11D8E
:1001D0005D968C91928D9F5F9F73928F90E00895B2
:1001E0008FEF9FEF0895FC01918D828D981731F06C
:1001F000828DE80FF11D858D90E008958FEF9FEFC0
:100200000895FC01918D228D892F90E0805C9F4F95
:10021000821B91098F739927089587E392E0F1DF9C
:1002200021E0892B09F420E0822F0895FC01848DC0
:10023000DF01A80FB11DA35ABF4F2C91848D90E010
:1002400001968F739927848FA689B7892C93A089EB
:10025000B1898C91837080648C93938D848D981375
:1002600006C00288F389E02D80818F7D8083089508
:10027000EF92FF920F931F93CF93DF93EC0181E0F6
:10028000888F9B8D8C8D981305C0E889F9898081B2
:1002900085FD25C0F62E0B8D10E00F5F1F4F0F73ED
:1002A0001127E02E8C8DE8120BC00FB607FCFACF99
:1002B000E889F989808185FFF5CFCE01B7DFF2CFDC
:1002C0008B8DFE01E80FF11DE35AFF4FF0829FB7BF
:1002D000F8940B8FEA89FB89808180620AC09FB7FE
:1002E000F894EE89FF896083E889F98980818370B9
:1002F000806480839FBF81E090E0DF91CF911F9168
:100300000F91FF90EF900895CF93DF93EC01888DCC
:100310008823C1F0EA89FB89808185FD05C0A88911
:10032000B9898C9186FD0EC00FB607FCF5CF808190
:1003300085FFF2CFA889B9898C9185FFEDCFCE01D9
:1003400075DFE8CFDF91CF91089580E090E0892BB1
:1003500019F063DF811125C080E090E0892B41F026
:1003600080E090E0892B21F00E94000081111CC0E8
:1003700080E090E0892B41F080E090E0892B21F033
:100380000E940000811113C080E090E0892BA1F051
:1003900080E090E0892B81F00E94000081110AC06A
:1003A00008950E940000D8CF0E940000E1CF0E9473
:1003B0000000EACF0C94000008953FB7F8948091B4
:1003C000330290913402A0913502B091360226B5E5
:1003D000A89B05C02F3F19F00196A11DB11D3FBF7D
:1003E000BA2FA92F982F8827820F911DA11DB11D0B
:1003F000BC01CD0142E0660F771F881F991F4A9507
:10040000D1F708958F929F92AF92BF92CF92DF92D1
:10041000EF92FF920F931F93CF93DF93CDB7DEB789
:10042000EA89FB89DF010D900020E9F7CD018E1BE1
:100430009F0BAC89BD89FD0101900020E9F7319740
:10044000BF016A1B7B0B680F791F81E090E035D2FA
:100450004C015E0182E1A80EB11C02E010E0E12C2B
:10046000F12CF501C080D18082E0A80EB11CB6014C
:10047000C4018E0D9F1D67D3F60101900020E9F79E
:100480003197EC19FD09EE0EFF1E0150110949F7D5
:10049000C401DF91CF911F910F91FF90EF90DF90FA
:1004A000CF90BF90AF909F908F90089541D31F92AF
:1004B0000F920FB60F9211240BB60F922F933F930A
:1004C0004F935F936F937F938F939F93AF93BF935C
:1004D000EF93FF9387E392E0A9DEFF91EF91BF9145
:1004E000AF919F918F917F916F915F914F913F91CC
:1004F0002F910F900BBE0F900FBE0F901F9018956D
:100500001F920F920FB60F9211240BB60F922F93DA
:100510008F939F93EF93FF93E0914702F0914802EE
:100520008081E0914D02F0914E0282FD12C09081D7
:10053000809150028F5F8F7320915102821751F08A
:10054000E0915002F0E0E95CFD4F958F80935002FE
:1005500001C08081FF91EF919F918F912F910F901A
:100560000BBE0F900FBE0F901F9018951F920F9209
:100570000FB60F9211242F933F938F939F93AF93B6
:10058000BF9380912F0290913002A0913102B091DF
:10059000320230912E0223E0230F2D3720F40196F2
:1005A000A11DB11D05C026E8230F0296A11DB11D96
:1005B00020932E0280932F0290933002A093310259
:1005C000B09332028091330290913402A0913502AF
:1005D000B09136020196A11DB11D80933302909314
:1005E0003402A0933502B0933602BF91AF919F9130
:1005F0008F913F912F910F900FBE0F901F901895E4
:10060000789484B5826084BD84B5816084BD85B5ED
:10061000826085BD85B5816085BD80916E008160F9
:1006200080936E001092810080918100826080939F
:1006300081008091810081608093810080918000A1
:100640008160809380008091B10084608093B100CC
:100650008091B00081608093B000809191008260B1
:1006600080939100809191008160809391008091AE
:1006700090008160809390008091A10082608093BF
:10068000A1008091A10081608093A1008091A000D1
:1006900081608093A000809121018260809321017C
:1006A00080912101816080932101809120018160EE
:1006B0008093200180917A00846080937A008091F9
:1006C0007A00826080937A0080917A0081608093C2
:1006D0007A0080917A00806880937A001092C1003D
:1006E000E0914702F091480282E08083E09143026A
:1006F000F09144021082E0914502F09146028FECA5
:10070000808310924F02E0914B02F0914C0286E000
:100710008083E0914902F0914A0280818061808368
:10072000E0914902F0914A02808188608083E091E3
:100730004902F0914A02808180688083E0914902F9
:10074000F0914A0280818F7D808390E4392E28E1E8
:10075000E22E22E0F22E3BE1C32E32E0D32E42E025
:10076000242E80917B00877F80937B0030927C00D9
:1007700080917A00806480937A0080917A0086FD6F
:10078000FCCF009178008091790010E0182B89E06F
:1007900090E0ADD0EC01009769F01F930F93FF92AA
:1007A000EF92DF938F93D6D10F900F900F900F9011
:1007B0000F900F90DF93CF93DF92CF921F922F92E3
:1007C00021DE8C010F900F900F900F900F900F90E3
:1007D000009761F0FC0101900020E9F73197AF012B
:1007E000481B590BBC0187E392E0ACDC42E050E0CF
:1007F0006AE272E087E392E0A5DCC80110D1CE0185
:100800000ED1DBDD4B015C0188EE482E83E0582ED3
:10081000612C712CD2DDDC01CB0188199909AA0960
:10082000BB09883E9340A105B105A0F321E0421A1F
:1008300051086108710888EE880E83E0981EA11C9B
:10084000B11C411451046104710421F77EDD89CF8C
:10085000E7E3F2E01382128288EE93E0A0E0B0E0DA
:1008600084839583A683B7838AE092E09183808313
:1008700085EC90E09587848784EC90E09787868765
:1008800080EC90E0918B808B81EC90E0938B828B5D
:1008900082EC90E0958B848B86EC90E0978B868B36
:1008A000118E128E138E148E0895EE0FFF1F881F67
:1008B0008BBF0790F691E02D19940F931F93CF9360
:1008C000DF93869F8001879F100D969F100D112446
:1008D000C8010DD0EC01009721F0A80160E070E0A4
:1008E0002BD1CE01DF91CF911F910F9108950F93DE
:1008F0001F93CF93DF938230910510F482E090E054
:10090000E091D602F091D70220E030E0A0E0B0E024
:10091000309719F14081518102811381481759079D
:10092000C8F08417950769F4109731F012960C936C
:10093000129713961C9327C00093D6021093D702E8
:1009400022C02115310519F04217530718F49A01F6
:10095000BD01EF01DF01F801DBCF21153105F9F011
:10096000281B390B2430310580F48A819B81611565
:10097000710521F0FB019383828304C09093D70219
:100980008093D602FE01329644C0FE01E20FF31FAF
:100990008193919322503109398328833AC0209161
:1009A000D4023091D502232B41F4209102023091E0
:1009B00003023093D5022093D4022091000230919B
:1009C00001022115310541F42DB73EB740910402D3
:1009D00050910502241B350BE091D402F091D50211
:1009E000E217F307A0F42E1B3F0B2817390778F006
:1009F000AC014E5F5F4F2417350748F04E0F5F1F65
:100A00005093D5024093D4028193919302C0E0E0C9
:100A1000F0E0CF01DF91CF911F910F910895CF9317
:100A2000DF93009709F481C0FC0132971382128290
:100A3000A091D602B091D702109781F42081318124
:100A4000820F931F2091D4023091D50228173907C5
:100A500051F5F093D502E093D40267C0ED0120E098
:100A600030E0CE17DF0740F44A815B819E014115DB
:100A70005105F1F0EA01F5CFD383C2834081518162
:100A8000840F951FC817D90759F488819981840F5D
:100A9000951F0296918380838A819B8193838283B1
:100AA0002115310529F4F093D702E093D6023DC019
:100AB000E901FB83EA8349915991C40FD51FEC17D3
:100AC000FD0761F480819181840F951F0296E901F1
:100AD00099838883828193819B838A83E0E0F0E01D
:100AE00012968D919C911397009719F0FD01DC01EE
:100AF000F7CF8D919C9111979D012E5F3F4F820FF3
:100B0000931F2091D4023091D5022817390769F438
:100B1000309729F41092D7021092D60202C01382A5
:100B20001282B093D502A093D402DF91CF910895A1
:100B300081E090E0F894E9C2DC0101C06D9341507E
:100B40005040E0F70895FB01DC0101900D92002078
:100B5000E1F708950F931F93CF93DF93CDB7DEB7DF
:100B60002E970FB6F894DEBF0FBECDBF0E891F893A
:100B700086E08C831A8309838FEF9FE79E838D83A2
:100B8000AE01465E5F4F688D798DCE01019610D023
:100B9000EF81F885E00FF11F10822E960FB6F894C2
:100BA000DEBF0FBECDBFDF91CF911F910F91089592
:100BB0002F923F924F925F926F927F928F929F926D
:100BC000AF92BF92CF92DF92EF92FF920F931F935B
:100BD000CF93DF93CDB7DEB72B970FB6F894DEBF78
:100BE0000FBECDBF6C017B018A01FC01178216820A
:100BF000838181FFBFC1CE0101963C01F601938143
:100C0000F70193FD859193FF81917F01882309F47A
:100C1000ADC1853239F493FD859193FF81917F01B8
:100C2000853221F4B60190E0D6D1E8CF912C212C69
:100C3000312CFFE1F315D8F08B3279F038F48032A3
:100C400079F08332A1F4232D20611DC08D3261F033
:100C5000803369F4232D216016C0832D8260382EE5
:100C6000E32DE4603E2E2AC0F32DF8601DC037FC52
:100C70002DC020ED280F2A3040F08E32B9F436FC1A
:100C800075C1232D2064322E19C036FE06C08AE0BD
:100C9000989E200D1124922E11C0EAE02E9E200D68
:100CA0001124222EF32DF0623F2E08C08C3621F441
:100CB000832D8068382E02C0883641F4F70193FDF9
:100CC000859193FF81917F018111B3CF982F9F7DF3
:100CD0009554933028F40C5F1F4F9FE399830DC008
:100CE000833631F0833771F0833509F055C020C069
:100CF000F801808189830E5F1F4F88248394912C93
:100D0000530112C02801F2E04F0E511CF801A080DF
:100D1000B18036FE03C0692D70E002C06FEF7FEF37
:100D2000C5014ED14C018201F32DFF773F2E15C036
:100D3000280122E0420E511CF801A080B18036FE4D
:100D400003C0692D70E002C06FEF7FEFC5012DD1A8
:100D50004C01F32DF0683F2E820133FC19C0822D27
:100D600090E088169906A0F4B60180E290E033D1B5
:100D70002A94F5CFF50137FC859137FE81915F010B
:100D8000B60190E028D121102A9421E0821A91081E
:100D90008114910479F7E1C0843611F0893639F570
:100DA000F80137FE07C060817181828193810C5FF9
:100DB0001F4F08C060817181072E000C880B990BB2
:100DC0000E5F1F4FF32DFF763F2E97FF09C09095C2
:100DD0008095709561957F4F8F4F9F4FF0683F2EA4
:100DE0002AE030E0A30133D1882E861844C085372D
:100DF00031F4232D2F7EB22E2AE030E025C0932D32
:100E0000997FB92E8F36C1F018F4883579F0AEC0CD
:100E1000803719F0883721F0A9C0E92FE061BE2E94
:100E2000B4FE0DC0FB2DF460BF2E09C034FE0AC015
:100E3000292F2660B22E06C028E030E005C020E150
:100E400030E002C020E132E0F801B7FE07C0608167
:100E50007181828193810C5F1F4F06C06081718117
:100E600080E090E00E5F1F4FA301F1D0882E86181E
:100E7000FB2DFF773F2E36FE0DC0232D2E7FA22E99
:100E8000891458F434FE0BC032FC09C0832D8E7EC9
:100E9000A82E05C0B82CA32C03C0B82C01C0B92CB7
:100EA000A4FE0FC0FE01E80DF11D8081803321F406
:100EB0009A2D997EA92E09C0A2FE06C0B394B394C0
:100EC00004C08A2D867809F0B394A3FC10C0A0FE5C
:100ED00006C0B21480F4280C922C9B180DC0B214DA
:100EE00058F4B60180E290E076D0B394F8CFB21413
:100EF00018F42B1802C0982C212CA4FE0FC0B601A8
:100F000080E390E068D0A2FE16C0A1FC03C088E791
:100F100090E002C088E590E0B6010CC08A2D86788A
:100F200051F0A1FE02C08BE201C080E2A7FC8DE27D
:100F3000B60190E050D0891430F4B60180E390E01F
:100F40004AD09A94F8CF8A94F301E80DF11D80817C
:100F5000B60190E040D08110F6CF222009F44ECEA9
:100F6000B60180E290E037D02A94F7CFF60186816F
:100F7000978102C08FEF9FEF2B960FB6F894DEBFDC
:100F80000FBECDBFDF91CF911F910F91FF90EF90DA
:100F9000DF90CF90BF90AF909F908F907F906F9099
:100FA0005F904F903F902F900895FC010590615005
:100FB00070400110D8F7809590958E0F9F1F08956F
:100FC000FC016150704001900110D8F78095909518
:100FD0008E0F9F1F08950F931F93CF93DF93FB01F5
:100FE000238121FD03C08FEF9FEF2CC022FF16C08D
:100FF00046815781248135814217530744F4A081EB
:10100000B1819D012F5F3F4F318320838C932681D7
:1010100037812F5F3F4F3783268314C08B01EC014C
:10102000FB010084F185E02D1995892BE1F6D801AB
:1010300016968D919C911797019617969C938E9377
:101040001697CE01DF91CF911F910F910895FA016C
:10105000AA27283051F1203181F1E8946F936E7FF7
:101060006E5F7F4F8F4F9F4FAF4FB1E03ED0B4E0E8
:101070003CD0670F781F891F9A1FA11D680F791F29
:101080008A1F911DA11D6A0F711D811D911DA11D3A
:1010900020D009F468943F912AE0269F112430194A
:1010A000305D3193DEF6CF010895462F4770405DE5
:1010B0004193B3E00FD0C9F7F6CF462F4F70405D94
:1010C0004A3318F0495D31FD4052419302D0A9F7EF
:1010D000EACFB4E0A6959795879577956795BA95E9
:1010E000C9F700976105710508959B01AC010A2EAF
:1010F00006945795479537952795BA95C9F7620F86
:0E110000731F841F951FA01D0895F894FFCF44
:10110E000000D8028000000000003801A200D000CC
:10111E0084010101DF00F300256400536F696C4DFB
:0E112E006F6973747572653A20000D0A000037
:00000001FF
